:020000040804EE
:104000002400170A01F05ABD000000000000000063
:104010000000000001F0A0BD01F0BBBD01F0D2BD69
:1040200001F0E8BD01F00CBE01F020BE0000000070
:104030000000000000000000000000000000000080
:104040000000000000000000000000000000000070
:1040500000F0B4BD00F04ABE01F001B800F0F8BFB6
:1040600001F089B801F0BAB801F0E0B800F0E5BE9F
:1040700001F0FCB801F05AB900F0BBBF01F0A1B9E2
:1040800001F0F2B901F0A2BA01F0C8BA01F0E8BA41
:1040900000F004BA10B50023D41A032C03D9CC586D
:1040A000C4500433F8E702F0030422F0030280183E
:1040B00000238A18A34203D0D15CC1540133F9E72D
:1040C00010BD30B5036901F1090243B3436900240F
:1040D00010461D5D0246202D08D0052D08BFE525A0
:1040E000013400F8015B082C0246F2D11C7A202C26
:1040F0000DD02E2200F8012B08241D5D0246202D34
:1041000005D0013400F8015B0B2C0246F5D1D87ABA
:104110000872D8690860188B8880DB8ACB80002100
:10412000117030BD08B5036873B11A7862B1D988CF
:104130008088814208D1587801F00CFC10F0010F02
:104140000CBF0020032008BD092008BD2DE9F04167
:10415000C56A04468D420E4602D10020BDE8F081BA
:10416000037913B9002EF8D01FE000F13008414662
:1041700040782A46012301F00DFC10B10120BDE872
:10418000F0812071E269206A11188D42EAD2E77845
:10419000012FE7D9E3696078ED1841462A460123EB
:1041A000013F01F0F7FBFFB2F2E7607804F1300164
:1041B0003246012301F0D2FB0028DFD1E662BDE8E0
:1041C000F08138B500210446FFF7C0FF034653BB1A
:1041D0002278032A1FD16079E8B1E36204F130014B
:1041E0000025CD540133B3F5007FF9D10E484AF6CE
:1041F0005522A4F82E2220632269E0680B4BC4F8F4
:104200001822C4F81432C4F81C02626960780123D1
:1042100001F0C0FB6571002160780A4601F0ECFBFB
:10422000003018BF012038BD5252614172724161A5
:1042300010B504460A46407804F13001012301F02C
:104240008DFBA0B9B4F82E224AF655239A4210D11C
:10425000D4F86610084B21F07F429A420AD0D4F875
:10426000820020F07F41C81A18BF012010BD032032
:1042700010BD022010BD00BF464154002DE9F84397
:10428000154602681378303B092B05D854783A2C30
:1042900002D10232026000E0002300200860002BFF
:1042A00040F0E6807A4C2468002C00F0E4800C603A
:1042B000217881B1607801F04DFBC2070BD4002D4D
:1042C00000F0DC8000F00400C3B2002B14BF0A2011
:1042D0000020BDE8F88300202070607001F0F4FA3F
:1042E000C30700F1CE802DB100F00403DAB2002A3A
:1042F00040F0CA806078022104F10A0201F07CFBE0
:10430000064610B10120BDE8F88320463146FFF78C
:104310008FFF01280BD194F8F20110B90D20BDE8F0
:10432000F883D4F8F66120463146FFF781FF032871
:10433000E8D00028F2D1B4F83B706189B942EDD1E0
:10434000B4F8463003B9636D94F84050E3616A1ED7
:10435000012AE570E2D894F83D00A0700028DDD075
:10436000411E0142DAD1B4F841107A09B1FBF2F8EA
:1043700002FB181292B22181002ACFD1B4F8432057
:1043800002B9226DB4F83EC0BCF1000FC6D005FBE7
:1043900003F9E044C8444245C0D3C8EB0202B2FB73
:1043A000F0F2002ABAD040F6F575AA4206D94FF6C7
:1043B000F57082428CBF0325022500E0012508EB41
:1043C00006000232A062032D06EB0C00A2612062FF
:1043D00005D10029A2D1E16D900061620EE00029B3
:1043E0009CD009EB0001022D616201D1500005E073
:1043F0000320504302F0010202EB50007A1E101815
:10440000B0FBF7F7BB4289D300214FF0FF33032DF8
:104410002361E16020D1B4F860206171B21862615B
:10442000607804F13001012301F098FAA0B9B4F8E2
:104430002E024AF6552398420ED1216B154A91421D
:104440000AD1D4F81402144B984205D1D4F81C12A6
:10445000D4F81822E16022610D4825708388591C28
:104460008AB282800020E280E0622071BDE8F88399
:104470000B20BDE8F8830C20BDE8F8832846BDE892
:10448000F8830320BDE8F8830A20BDE8F88300BF65
:1044900004EC0020525261417272416110B5044631
:1044A000FFF78FFE20460121BDE81040FFF74EBE0A
:1044B000836902399A1E914204D28278806A02FB93
:1044C00001007047002070470129F8B504460D46E9
:1044D00060D9836999425DD20178022931D00329DC
:1044E00041D0012953D1428905EB5506036AB6FB39
:1044F000F2F1C918FFF72AFE002848D16089236A23
:10450000B6FBF0F700FB17620136A118B6FBF0F21C
:1045100091F830702046D118FFF718FE002836D1E8
:104520006089B6FBF0F100FB1166A41994F8302005
:10453000E90747EA022301D51809F8BD1805000D5F
:10454000F8BD43895A08036AB5FBF2F1C918FFF7B1
:10455000FDFDE0B960896D00B5FBF0F200FB12557E
:104560003035605BF8BD4189036A8A08B5FBF2F11A
:10457000C918FFF7EBFD50B96089AD00B5FBF0F24B
:1045800000FB12553035615921F07040F8BD4FF0F5
:10459000FF30F8BD0120F8BD70B50446E1800D463E
:1045A0008168012901D1022070BD03689A69914296
:1045B000F9D289B91878032801D1596A61B9002163
:1045C000E1601889A842EED95A895B6A5109B5FBA6
:1045D000F1F0C218226120E05E899A787309534392
:1045E0009EB2B5420ED32068FFF76EFF0146013040
:1045F00021D00129D7D9226893699942D3D2AD1B22
:10460000ADB2EEE72668E1603046FFF751FF7189F1
:104610004A09B5FBF2F318182061206841894B095B
:10462000B5FBF3F203FB12518BB200EB43103030B9
:104630006061002070BD012070BD10B5C1880446C6
:10464000FFF7AAFF50B920682169FFF77FFD28B95D
:104650006369E5221A70216801230B7110BD0129DD
:10466000F8B504460D46164675D98369994272D24B
:104670000178022943D0032953D0012967D1428907
:1046800005EB5507036AB7FBF2F1C918FFF75EFDAA
:1046900000285DD1618915F00105B7FBF1F001FB40
:1046A0001072F3B207D0A01890F8300000F00F009D
:1046B00040EA0313DBB2A21882F830300137236AD4
:1046C0000120B7FBF1F12071C9182046FFF73EFD2C
:1046D00000283DD16189B7FBF1F201FB127715B1DA
:1046E000C6F3071607E0E31993F83010C6F3032664
:1046F00021F00F021643E71987F8306028E042895D
:104700005308026AB5FBF3F18918FFF71FFDF8B9EA
:1047100063896D00B5FBF3F103FB1155303566532A
:1047200016E043899908036AB5FBF1F2D118FFF747
:104730000DFD68B96189AD00B5FBF1F201FB1255C1
:104740003035635903F070410E43665100E002209A
:1047500001222271F8BD0220F8BDF8B505460F46CA
:1047600031B9C6686EB18069864228BF012609E06A
:10477000FFF7AAFE01283BD9AB69984239D33E46E0
:1047800000E001263446A96901348C4204D3012E8D
:1047900001D80020F8BD022428462146FFF794FEE8
:1047A00048B1411C02D14FF0FF30F8BD01281FD0A5
:1047B000B442E8D1EDE7284621466FF07042FFF79A
:1047C0004EFF98B947B92B69EC605A1C0CD05A1EA1
:1047D00001202A61687107E0284639462246FFF722
:1047E0003EFF0028EFD001E02046F8BD0128DAD0D6
:1047F0000120F8BDF8B5C6880446701C86B20F4685
:104800000EB90420F8BD2369002BFAD02068428934
:104810005209B6FBF2F102FB116291B2002960D19C
:1048200001332361E3681BB90089B042E9D958E03C
:10483000428951098278B6FBF1F1013A114250D117
:104840001946FFF741FE0128054601D80220F8BDB0
:10485000431C01D10120F8BD206883699D423AD3F1
:10486000002FCED0E168FFF778FF0546002847D03B
:104870000128EBD00130EDD020680021FFF766FC65
:104880000028E7D1276807F130027889134611180C
:104890008B4203D0002103F8011BF8E72768294663
:1048A0003846FFF705FEF862002720688278BA4292
:1048B0000ED90121017120680021FFF747FC002873
:1048C000C8D120680137C26AFFB2531CC362ECE74B
:1048D000C36ADF1BC762E56020682946FFF7E8FD71
:1048E00020612368E6805A895009B6FBF0F100FB8D
:1048F000116290B203EB4013303363610020F8BDC6
:104900000720F8BD2DE9F0410B7804462F2B0D460A
:1049100001D05C2B00D101350026A66028781F2825
:1049200053D820463146FFF737FE6661BDE8F08177
:104930005C294AD0A66900252022725501350B2D2D
:10494000FAD100200546082102467B5D0135202B67
:1049500041D87D19202B94BF0423002300287CD04C
:104960003078E52801D105203070082901D1910067
:10497000CAB202F00300012802F00C0108BF43F0A4
:104980001003042908BF43F00803F37220460021F6
:10499000FFF702FE002833D0A169CB7A00284ED160
:1049A00003F00402D1B2002975D16069C37A03F023
:1049B0001002D1B200294DD02768468B3B78032BDB
:1049C00004BF808A46EA0046A66029782F46013552
:1049D0002F29ADD1F9E72F2BBBD05C2BB9D02E2BD3
:1049E00052D0884239D213F0800F36D1DFF8AC8034
:1049F00018F801CFBCF1000F32D09C45F8D12CE063
:104A000020682169FFF7A2FB0028C5D162691378ED
:104A10009BB1D17A01F00803D9B249B9A76903461D
:104A2000D65CF95C01338E4202D10B2BF8D1B3E78F
:104A300020460021FFF7DEFEACE70420ACE70428A7
:104A400029D103F00400C2B2002A14BF04200520BB
:104A5000BDE8F0810520BDE8F0810620BDE8F081C9
:104A6000A3F1410CBCF1190F02D842F0020208E098
:104A7000A3F1610CBCF1190F03D8203B42F00102F5
:104A8000DBB23354013060E70829E6D192000846D2
:104A9000D2B20B2159E7BDE8F08100BF875C040862
:104AA00038B500210446FFF777FD054618BB20689E
:104AB0002169FFF74BFB0546E8B963691878E528DB
:104AC00005D020B120460121FFF794FEEDE72068D4
:104AD0002169FFF73BFB054668B96069294600225A
:104AE000425401312029FAD1A1690B22FFF7D2FAF1
:104AF000236801201871284638BD10B504230446E8
:104B00002169B9B12068FFF721FBD0B96269137838
:104B1000B3B1E52B06D02E2B04D0D17A01F00802D8
:104B2000D3B283B120460021FFF764FE034600287C
:104B3000E6D006E0184633B100202061184610BDCB
:104B400004200346F8E710BD012970B504460D4660
:104B500022D9836999421FD2A069854205D2204695
:104B60002946FFF7B1FC064608B9002070BD0128B0
:104B700012D0411C0ED0204629460022FFF76FFDBF
:104B800058B921694A1C03D04A1C0125226165716C
:104B90003546E1E7012070BD022070BD48B9064AE4
:104BA000136803B1187009B100200870116000206B
:104BB00070470B20704700BF04EC00202DE9F04344
:104BC0008DB0019117460546002800F08280002331
:104BD000036005A901A802F01E02FFF74FFB804603
:104BE00000287FD102A80B90019905A8FFF78AFE43
:104BF0000A9C18B9002C0CBF0620002017F01C0FCF
:104C000007F01F063CD048B1042802D105A8FFF7E1
:104C100047FF46F008060A9C48B162E0E07A10F0CF
:104C2000110F5DD107F00401CFB2002F54D106F06F
:104C30000802D3B2002B30D000F004FF0021C4F8EA
:104C40000E000598E172E1610278678B032A08BFC4
:104C5000A28A618308BF47EA02470123A182037148
:104C6000DFB13946D0F82C90FFF76EFF002838D11D
:104C70000598013FC7604946FFF768FA68B130E020
:104C800000282ED1E17A01F01002D3B233BB07F035
:104C90000207FFB20FB1C80722D406F00800C1B264
:104CA00009B146F02006059BDA6A2C62EA61AE7112
:104CB0001978608B032904BFA18A40EA014028616A
:104CC000E2690020EA60A860A8612B60DB88AB8005
:104CD00008E04FF0090805E0082002E0042000E0A9
:104CE0000720804640460DB0BDE8F0832DE9F74F20
:104CF0009A460023CAF80030044688461646FFF755
:104D000011FA0546002840F09580A079010600F1CF
:104D10008E80C20740F18D80E168A2688F1ABE4282
:104D200038BF3746002F00F085802068A26843898D
:104D3000B2FBF3F103FB1123002B4BD18378013B32
:104D40000B4013F0FF0B0AD10AB9206902E0616938
:104D5000FFF7BAFB012809D9431C4AD06061D4F897
:104D6000009061694846FFF7A3FB20B9A37963F07F
:104D70007F01A1715BE0B9F80A6000EB0B0CB7FB97
:104D8000F6F62EB399F8023006EB0B01994288BF74
:104D9000CBEB030699F8010062464146F3B2CDF829
:104DA00004C000F0DBFDDDF804C010BB2168087909
:104DB00050B1CA6ACCEB0203B34205D24A89303102
:104DC00002FB0380FFF766F921684889464323E028
:104DD000C4F818C02068A2684189B2FBF1F301FB56
:104DE00013268E1BA169B74238BF3E46FFF7AEF9C6
:104DF00028B1A57965F07F02A27101251AE0236828
:104E0000A1685A89B1FBF2F002FB101230329918F6
:104E100040463246FFF73EF9A268B0449319A360BA
:104E2000DAF80010BF1B8819CAF800007AE70225DB
:104E300000E007252846BDE8FE8F2DE9F74F99468B
:104E40000023C9F80030044688461746FFF76AF980
:104E50000546002840F0CA80A079020600F1C38010
:104E600000F00201CAB2002A00F0BF80E368DF420E
:104E700028BF0027EFB12068A3684189B3FBF1F296
:104E800001FB1231002978D190F802A00AF1FF311C
:104E90000A4012F0FF0A18D133B9216981B9FFF72E
:104EA0005CFC0146206103E06169FFF756FC0146A6
:104EB00031B9A368E1688B4240F29080E3608DE0F5
:104EC000012913D0481C67D061612068A369C16AB9
:104ED000994204D10021FFF739F900285CD1D4F8B8
:104EE00000B061695846FFF7E3FA20B9A07960F095
:104EF0007F02A27177E0BBF80A6000EB0A0CB7FBF7
:104F0000F6F646B39BF8021006EB0A028A4288BF07
:104F1000CAEB01069BF8010062464146F3B2CDF8A8
:104F200004C000F037FDDDF804C08246002833D10C
:104F30002068C36ACCEB0301B14208D24289303009
:104F400002FB0181FFF7A6F8206880F804A0226820
:104F500053895E4337E0A068E26890420BD358461D
:104F60003146CDF804C0FFF7F1F8DDF804C098B978
:104F70002168C1F82CC0C4F818C02068A268438911
:104F8000B2FBF3F603FB16215E1AA169B74238BFE4
:104F90003E46FFF7DBF828B1A57965F07F01A171E6
:104FA000012523E02368A1685A89B1FBF2F002FBD6
:104FB000101202F13001581832464146FFF76AF8E4
:104FC000236801201871A168B0448819A060D9F83D
:104FD0000020BF1B9319C9F800304BE7A07940F0BF
:104FE0002002A27102E0022500E007252846BDE864
:104FF000FE8F70B50446FFF795F8002827D1A379F6
:1050000003F02001CAB2002A21D02068E169FFF72D
:105010009DF80646DEB9256AE87A40F02003EB7277
:10502000E168E9612269100C6A83A88200F00AFD38
:105030006E82C5F81600A379206823F020010122B2
:10504000A17102712068BDE87040FFF7BAB870BD69
:1050500010B50446FFF7CDFF00B9206010BDF8B5CC
:1050600004460D46FFF75EF80646002840F08180B2
:10507000A27911067CD4E3689D4205D902F00200B2
:10508000C1B2002908BF1D460022A368A2600DB965
:10509000002058E02068418987784F436BB16A1E31
:1050A000013BB2FBF7F1B3FBF7F2914205D3784233
:1050B0000340A360ED1A61690AE0216939B9FFF77D
:1050C0004CFB0128014638D0431C1DD02061616192
:1050D0000029DDD00AE001292FD920688269914298
:1050E0002BD2A3686161D819A060ED1BBD4216D90F
:1050F000A379206803F00202D3B25BB1FFF72DFB66
:10510000014658B1481CE6D1A67966F07F01A1712D
:1051100001262EE0FFF7D8F90146F3E73D46A768E0
:1051200020687A19A2604389B5FBF3F703FB175592
:10513000002DADD0FFF7BCF920B9A67966F07F014C
:10514000A17115E0C0192168A3684A89B3FBF2F187
:1051500002FB11321AB1A169884218BFA061E06850
:10516000834206D9E360A37943F02002A27100E0F4
:1051700002263046F8BD30B587B00191044650B3E1
:1051800001A821460022FFF779F8256800BB03AB90
:10519000A36120460199FFF7B5FBA0B9606960B132
:1051A000C27A02F01001CBB28BB12978428B03296D
:1051B00004BF808A42EA0042A260E8880021A08001
:1051C0002046FFF7E9F9042801D028B100E00520C6
:1051D0000023236000E0092007B030BD7FB50446FE
:1051E0000E46FEF79FFF0546E8B926B92046294638
:1051F000FFF7D2F916E001ABA3612046FFF77DFC73
:10520000042801D1256100E060B920463146FEF74F
:1052100058FF00212046FFF7EDFA042802D10020B4
:10522000206100E00546284604B070BD30B58DB061
:105230000CAB43F82C0D0D46184605A90022FFF7CC
:105240001DF8044678B902A80B90019905A8FFF74C
:1052500059FB044638B90A9921B105A82946FEF739
:1052600030FF00E0062420460DB030BD2DE9F347A5
:1052700002AB43F8040D1446884618461146002236
:10528000FEF7FCFF2468054600284CD1A769206979
:10529000BA1E904202D8C8F8000044E094F800908A
:1052A000B9F1010F10D102272E4620463946FFF7EB
:1052B0000BF9431C2AD001282AD000B90136A16974
:1052C00001378F42F1D326E0216A2B462A462E462B
:1052D0004AB9204601F1010AFEF738FFD0B96289C8
:1052E00004F130035146B9F1020F05D1188800B915
:1052F00001360233023A06E0186820F0704000B927
:1053000001360433043A013FE2D104E0012502E012
:10531000022500E00546B9F1030F266101D1012302
:105320006371C8F800602846BDE8FC8770B5044684
:1053300068B1FEF7F7FE0546002840D1A3791906AB
:1053400037D403F00202D0B2002834D001E009259E
:1053500035E0A668E168B14231D943F02003E66048
:10536000A37120682EB92169FFF7EEFB266105467F
:1053700019E06169FFF7A8F8421C06461DD0012814
:1053800001D1022510E020688269964217D2616936
:105390006FF07042FFF763F9054628B9206831467F
:1053A000FFF7D2FB054655B1A07960F07F01A171EE
:1053B00005E0022503E0072501E00125F4E7284682
:1053C00070BD10B594B014AB43F84C0D184606A947
:1053D0000122FEF753FF002844D103A80C90019945
:1053E00006A8FFF78FFA00283CD10B9931B1CA7A91
:1053F00012F0010F0CBF0020072000E00620069BE2
:105400004C8B1A78032A04BF8A8A44EA024448BBB8
:10541000C87A00F01001CBB293B1012C1FD90DA8AE
:1054200006A91C22FEF736FE0DA802210F94FFF7F5
:10543000B3F8B8B90DA8FFF760FB90B1042811D1FB
:1054400006A8FFF7FAF868B91CB90698FEF7B9FE86
:1054500008E006982146FFF777FB18B9F5E7022028
:1054600000E0072014B010BD2DE9F04F8DB00CAC5A
:1054700044F82C0D00F0E6FA05A907460122204663
:10548000FEF7FCFE04460646002840F09B8002AB77
:1054900005A801990B93FFF735FA0446A0B104283B
:1054A00040F0908005983146FFF757F9054628B13E
:1054B00001280BD00124013001D009E00724059810
:1054C0002946FFF741FB7DE008247BE00224F6E754
:1054D00005983146FEF73AFE04460028EFD1059CB8
:1054E00029462046FEF7E4FF04F130066189824632
:1054F0003246881982424FF0000302D002F8013B85
:10550000F7E72022F25401330B2BFAD1102125FAB0
:1055100001F84FF02E0B1FFA85F984F83B1004F1C7
:10552000500084F830B0C4F84670A4F84A90A4F84B
:1055300044803146FEF7AEFD059A84F851B01378E9
:105540000798032B03D1516A884208BF0020A4F8B2
:105550006A00000CA4F8640092F802B0BBF1000FDE
:105560001BD005980121C0F82CA001710021FEF785
:10557000EDFD0AF1010A04460028A0D10598334642
:1055800041897418A34203D0002203F8012BF8E7E5
:105590000BF1FF3C5FFA8CFBE0E705A8FFF780FA10
:1055A000044600288BD10A9C059810220123E27240
:1055B000C4F81670A4F81A90A4F814800371FEF7CA
:1055C00000FE044620460DB0BDE8F08F30B58DB02A
:1055D0000CAB43F82C0D0C461546184605A90122C4
:1055E000FEF74CFEC0B902A80B90019905A8FFF781
:1055F00089F988B90A9B73B1D97A05F0270221EAA3
:105600000201144041EA0400D87205980123037195
:10561000FEF7D7FD00E006200DB030BD10B58CB010
:105620000CAB43F82C0D0C46184605A90122FEF7D9
:1056300025FE98B902A80B90019905A8FFF762F919
:1056400060B90A9949B1E2880598CA82A3880B8398
:1056500001210171FEF7B5FD00E006200CB010BD80
:1056600030B59BB01AAB43F8640D0C4618460CA934
:105670000122FEF703FE00286FD10C9803A91390B6
:1056800012910CA80199FFF73DF9002865D11199F5
:10569000002955D006A80B311522FEF7FBFC13A8F4
:1056A0000CA91C22FEF7F6FC13A82146FFF72AF9E5
:1056B000002847D0042850D113A8FFF7F1F900289B
:1056C0004BD1189C132204F10D000DF11A01FEF7C5
:1056D000E1FC9DF81820012342F02005E5720C9DA5
:1056E0002B7115980E9981422ED0E27A02F01003A8
:1056F000D8B248B32A78618B032A08BFA28A284609
:1057000008BF41EA0241FEF7D3FE014620B3284616
:10571000FEF71CFD0C9B00BB93F851102E2913D1F2
:105720001A78032A03D15A6A1599914200D0159824
:10573000A3F86A000122000CA3F864001A7103E0C8
:1057400004200AE0082008E00CA8FEF776FF20B944
:105750000C98FEF736FD00E002201BB030BD00BF04
:1057600062B6704772B67047044B1A8902F00201A4
:105770008AB2002AF8D09881704700BF003C0040F0
:105780000E4B188900F002018AB2002AF8D00B4BA8
:1057900018891A4600F0800188B20028F7D19B8949
:1057A00099B2108982B2054BFF2199810348028981
:1057B000D207FBD58189C8B2704700BF003C0040CA
:1057C000F8B50D464FF47053C4F20003198901F087
:1057D000020293B2002BF5D04FF47051C4F20001D5
:1057E0000A8902F080039AB2002AF5D189898BB226
:1057F0004FF47052C4F2000211898BB24FF4705111
:10580000C4F20001FF228A810DB3134F461C4FF4EE
:105810007054C4F20004208900F0020399B20029F8
:10582000F5D0FFF79FFFFF22A2814FF47050C4F222
:1058300000000389D907F8D53978828941B1D0436E
:1058400006F8010CFFF78CFF0136013DDFD1F8BDF2
:1058500006F8012CF6E700BF00EC00202DE9F04728
:1058600080460D461746C1F3074AC1F30729154C78
:105870004FF400008023236120610520FFF774FFAF
:10588000FFF77EFFC607FBD44FF4000180260320FC
:1058900026612161FFF768FF5046FFF765FF484624
:1058A000FFF762FFE8B2FFF75FFF40463946FFF7B8
:1058B00087FFFFF765FFA2681006D8D4014B1E6171
:1058C000BDE8F087000C014013B50446002838D12C
:1058D0000E20BEF7BFFC437864215943C3780246CB
:1058E0000A2000FB031112798B18A3F5A65010387B
:1058F000B0F59C7F02DA154B1C7011E01220BEF748
:10590000A9FC0178114B382908D142784D2A05D1DC
:105910008078422802D101221A7001E0002119701A
:10592000684600210822FFF799FF9DF8000014281F
:1059300009D19DF801100020C32905D1044A107037
:1059400002E0012000E000201CBD00BF0CEC0020A4
:1059500000EC0020003018BF0120704710B5A8B936
:10596000A3B10B48047834B1012C14BF4FF4007478
:105970004FF4805401E04FF40074084602FB04F138
:1059800004FB03F2FFF76AFF002010BD042010BDE6
:105990000CEC0020F8B50C4615461E4640BB3BB348
:1059A000144B187898B96F0220463946BEF75AFC56
:1059B00008B10120F8BD04F5807007F58071BEF7CD
:1059C00051FC0028F5D1013504F500740AE00128E6
:1059D00008D120462903BEF745FC0028E9D101354E
:1059E00004F58054013E16F0FF06D9D13046F8BDCB
:1059F0000420F8BD0CEC002000BBE9B101290BD15B
:105A00000F4B187828B101280CBF4FF4006100211A
:105A100011E04FF480510EE0023901290ED8084BF5
:105A2000187830B1012814BF4FF400714FF4805141
:105A300001E04FF4007111600020704704207047AE
:105A40000CEC002000487047A06C21280023C25CA9
:105A5000202A04D00133082B01F8012BF7D12E2284
:105A60000A70037A4B70427A00238A70807A0B7135
:105A7000C87070470C4B0D4A9A4201D10C4B0AE09A
:105A80000023094A0B4998188842F7D20749585809
:105A900098500433F5E7084A934203D2002043F8B4
:105AA000040BF8E7704700BF00EC0020435D0408DA
:105AB00004EC002001EC002064FC002000B51E4B2B
:105AC0008BB01A79A12A35D01C48416941F04002B7
:105AD0004261A12018711A4B58206E214FF4FC62CC
:105AE00000930023BEF7B0FBFFF7C4FF1549582011
:105AF00000914FF4FC626E210023BEF7A5FB00204D
:105B00001149FFF74BF860B903A81049FFF733FBC1
:105B1000034630B90E486E2100904FF4FC625820C5
:105B200006E00C4A582000926E214FF4FC620023DC
:105B3000BEF78AFB0BB000BD0030024000100240EF
:105B4000975C0408C45C040810EC0020F35C0408B3
:105B5000F55C0408185D040808B5054B05485A684B
:105B6000824201D1FFF7AAFF03490B68984708BD9D
:105B700000080140BB3B83882000000840B1012899
:105B800006D0022804D0043801288CBF022004204B
:105B900070471FB5084669461446FFF757FF694628
:105BA0000A220648FFF70AF8054B53F8B81C218073
:105BB00004B0BDE81040FFF7E1BF00BF40FC00208B
:105BC00008FD00201FB5084669461446FFF73EFF52
:105BD000694601220548FEF7F1FF054B53F8B81C52
:105BE000218004B0BDE81040FFF7C8BF40FC002092
:105BF00008FD00200F4B13B50446098853F8B80C74
:105C000081420BD121464FF4007201AB0A48FFF7E5
:105C10006DF802B0BDE81040FFF7B0BF0748FEF7CF
:105C200047FC2146024601230020FFF797FE002093
:105C300002B010BD08FD002040FC002010EC002048
:105C400007B5014601AB08484FF40072FFF7F5F8BD
:105C5000019BB3F5007F04D103B05DF804EBFFF7BF
:105C60008DBF032003B000BD40FC002008B50548EF
:105C7000FFF7F5F910B90348FFF7EAF9BDE8084066
:105C8000FFF77CBF40FC0020222A2B2C3A3B3C3DF6
:105C90003E3F5B5D7C7F00416C74657242494F53AF
:105CA00020302E343A20496E697469616C697A69D2
:105CB0006E6720202020202020202020202020204F
:105CC00020202000416C74657242494F5320302ED1
:105CD000343A204D6F756E74696E67204661744664
:105CE0005320202020202020202020202020202081
:105CF0002020002F00416C74657242494F532030C0
:105D00002E343A204F4B20202020202020202020FD
:105D10002020202020202000416C74657242494FD1
:105D20005320302E343A2046617446532046414970
:105D30004C20202020202020202020202020202037
:035D400020200020
:015D4300015E
:0400000508044000AB
:00000001FF
