:020000040804EE
:104000002400170A01F03ABC000000000000000084
:104010000000000001F078BC01F093BC01F0AABCE4
:1040200001F0C0BC01F0E0BC01F0F4BC00000000F5
:104030000000000000000000000000000000000080
:104040000000000000000000000000000000000070
:1040500000F05CBD00F0F2BD00F07ABF00F071BF6F
:1040600000F0F7BF01F028B801F04EB800F077BEBD
:1040700001F06AB801F0C9B800F034BF01F010B91E
:1040800001F061B901F004BA01F02ABA01F04ABAAC
:1040900000F0F6B910B50023D41A032C03D9CC587C
:1040A000C4500433F8E702F0030422F0030280183E
:1040B00000238A18A34203D0D15CC1540133F9E72D
:1040C00010BD30B5036901F1090243B3436900240F
:1040D00010461D5D0246202D08D0052D08BFE525A0
:1040E000013400F8015B082C0246F2D11C7A202C26
:1040F0000DD02E2200F8012B08241D5D0246202D34
:1041000005D0013400F8015B0B2C0246F5D1D87ABA
:104110000872D8690860188B8880DB8ACB80002100
:10412000117030BD08B5036873B11A7862B1D988CF
:104130008088814208D1587801F0ECFA10F0010F24
:104140000CBF0020032008BD092008BD2DE9F04167
:10415000C56A04468D420E4602D10020BDE8F081BA
:10416000037913B9002EF8D01FE000F13008414662
:1041700040782A46012301F011FB10B10120BDE86F
:10418000F0812071E269206A11188D42EAD2E77845
:10419000012FE7D9E3696078ED1841462A460123EB
:1041A000013F01F0FBFAFFB2F2E7607804F1300161
:1041B0003246012301F0B2FA0028DFD1E662BDE801
:1041C000F08138B500210446FFF7C0FF034653BB1A
:1041D0002278032A1FD16079E8B1E36204F130014B
:1041E0000025CD540133B3F5007FF9D10E484AF6CE
:1041F0005522A4F82E2220632269E0680B4BC4F8F4
:104200001822C4F81432C4F81C02626960780123D1
:1042100001F0C4FA6571002160780A4601F0DFFA06
:10422000003018BF012038BD5252614172724161A5
:1042300010B504460A46407804F13001012301F02C
:104240006DFAA0B9B4F82E224AF655239A4210D13D
:10425000D4F86610084B21F07F429A420AD0D4F875
:10426000820020F07F41C81A18BF012010BD032032
:1042700010BD022010BD00BF464154002DE9F041A1
:10428000154602681378303B092B05D854783A2C30
:1042900002D10232026000E0002300200860002BFF
:1042A00040F0D580734C2468002C00F0D3800C6063
:1042B000217881B1607801F02DFAC3070BD4002D6D
:1042C00000F0CB8000F00402D3B2002B14BF0A2010
:1042D0000020BDE8F08100202070607001F016FA27
:1042E000C10700F1BD802DB100F00403DAB2002A4D
:1042F00040F0B98000212046FFF79AFF01280CD139
:1043000094F8F20110B90D20BDE8F081D4F8F661FF
:1043100020463146FFF78CFF00E00026032800F01E
:10432000A5800028EFD1B4F83B10B1F5007FEAD1A9
:10433000B4F8463003B9636D94F84050E3616A1EE7
:10434000012AE570DFD894F83D00A0700028DAD08B
:10435000411E0142D7D1B4F841100A072181D2D1C0
:10436000B4F8432002B9226DE78F002FCBD005FBB4
:1043700003F807EB111C0CEB080E7245C3D3CEEB10
:104380000202B2FBF0F2002ABDD040F6F575AA4257
:1043900006D94FF6F57082428CBF0325022500E056
:1043A000012502320EEB0600F719032DA261A0626F
:1043B000276205D10029A6D1E16D900061620DE070
:1043C0000029A0D04744022D676201D1500005E0CA
:1043D0000321514302F0010202EB510000F2FF12EF
:1043E000B3EB522F8FD300204FF0FF33032D236107
:1043F000E06020D1B4F8601060717218626160787A
:1044000004F13001012301F089F9A0B9B4F82E229A
:104410004AF655239A420ED1206B174988420AD199
:10442000D4F81432154A934205D1D4F81C02D4F8BA
:104430001812E06021610F4A25709388581C81B2E0
:1044400000209180E180E0622071BDE8F0810B20C6
:10445000BDE8F0810C20BDE8F0812846BDE8F08180
:104460000320BDE8F0810A20BDE8F0810120BDE80D
:10447000F08100BF00180020525261417272416108
:1044800010B50446FFF79DFE20460121BDE810400F
:10449000FFF75CBE836902399A1E914204D282788A
:1044A000806A02FB01007047002070470129F8B5BF
:1044B00004460D4648D98369994245D201780229BC
:1044C00027D0032930D001293BD1026A05EB5506DC
:1044D00002EB5621FFF73AFE002832D1236AF0059D
:1044E000013604EBD05703EB5621204697F8307085
:1044F000FFF72CFE28BBF60504EBD65494F83010D9
:10450000EA0747EA012001D50009F8BD0205100DB0
:10451000F8BD026A02EB1521FFF718FE88B92D06D7
:1045200004EBD554208EF8BD036A03EBD511FFF7D9
:104530000DFE30B96D0604EBD554216B21F07040AF
:10454000F8BD4FF0FF30F8BD0120F8BD70B504464E
:10455000E1800D468168012901D1022070BD036808
:104560009A699142F9D271B91878032801D1596A30
:1045700049B90020E0601989A942EED95B6A03EBD2
:104580001512226119E09E783601B5420ED32068DB
:10459000FFF78CFF0146013018D00129DDD92368CF
:1045A0009A699142D9D2AD1BADB2EEE7E1602068C5
:1045B000FFF770FF00EB1511216105F00F05206872
:1045C0006D01303541196161002070BD012070BD61
:1045D00010B5C1880446FFF7B9FF50B920682169BA
:1045E000FFF7B4FD28B96369E5221A702168012339
:1045F0000B7110BD0129F8B504460D4616465DD96C
:10460000836999425AD20178022939D0032942D0CC
:1046100001294FD1026A05EB550702EB5721FFF73D
:1046200095FD002847D1F805C20D15F00105F3B23C
:1046300007D0A11891F8300000F00F0141EA0313F0
:10464000DBB2A21882F83030216A012001372071D4
:1046500001EB57212046FFF779FD60BBFF05FA0DFE
:1046600015B1C6F3071607E0A31893F83010C6F388
:10467000032621F00F073E43A71887F830601AE0A1
:10468000026A02EB1521FFF761FDA0B92D0604EBCC
:10469000D5552E860FE0026A02EBD511FFF756FDC5
:1046A00048B96D06ED0D3035635903F070410E4386
:1046B000665100E0022001232371F8BD0220F8BDFD
:1046C000F8B505460F4631B9C6686EB180698642B5
:1046D00028BF012609E0FFF7E9FE01283BD9AB69B5
:1046E000984239D33E4600E001263446A969013498
:1046F0008C4204D3012E01D80020F8BD02242846A4
:104700002146FFF7D3FE48B1411C02D14FF0FF30E4
:10471000F8BD01281FD0B442E8D1EDE72846214674
:104720006FF07042FFF766FF98B947B92B69EC60EC
:104730005A1C0CD05A1E01202A61687107E02846D5
:1047400039462246FFF756FF0028EFD001E0204609
:10475000F8BD0128DAD00120F8BD2DE9F843C6885C
:104760000446701C86B20F4616B90420BDE8F883D3
:104770002369002BF9D016F00F085CD1591C216178
:10478000E168206819B90289B242EED953E0827813
:10479000531E13EA16124ED1FFF788FE0128054674
:1047A00002D80220BDE8F883431C02D10120BDE8F5
:1047B000F883206881698D4237D3002FD5D0E16816
:1047C000FFF77EFF0546002841D00128E9D00130DF
:1047D000ECD020680021FFF7B9FC0028E6D1226860
:1047E0003032002717540130B0F5007FF9D1D4F8EA
:1047F000009029464846FFF74DFEC9F82C00206876
:104800008378BB420ED90122027120680021FFF794
:104810009DFC0028CAD120680137C36AFFB2591C29
:10482000C162ECE7C16ACF1BC762E5602068294618
:10483000FFF730FE206120684FEA481808F1300881
:1048400000EB0803E68063610020BDE8F8830720E1
:10485000BDE8F8832DE9F0410B7804462F2B0D4677
:1048600001D05C2B00D101350026A66028781F28D6
:1048700053D820463146FFF769FE6661BDE8F081F6
:104880005C294AD0A66900252022725501350B2DDE
:10489000FAD100200546082102467B5D0135202B18
:1048A00041D87D19202B94BF0423002300287CD0FD
:1048B0003078E52801D105203070082901D1910018
:1048C000CAB202F00300012802F00C0108BF43F055
:1048D0001003042908BF43F00803F37220460021A7
:1048E000FFF734FE002833D0A169CB7A00284ED1DF
:1048F00003F00402D1B2002975D16069C37A03F0D4
:104900001002D1B200294DD02768468B3B78032B8B
:1049100004BF808A46EA0046A66029782F46013502
:104920002F29ADD1F9E72F2BBBD05C2BB9D02E2B83
:1049300052D0884239D213F0800F36D1DFF8AC80E4
:1049400018F801CFBCF1000F32D09C45F8D12CE013
:1049500020682169FFF7FAFB0028C5D16269137846
:104960009BB1D17A01F00803D9B249B9A7690346CE
:10497000D65CF95C01338E4202D10B2BF8D1B3E740
:1049800020460021FFF7E9FEACE70420ACE704284D
:1049900029D103F00400C2B2002A14BF042005206C
:1049A000BDE8F0810520BDE8F0810620BDE8F0817A
:1049B000A3F1410CBCF1190F02D842F0020208E049
:1049C000A3F1610CBCF1190F03D8203B42F00102A6
:1049D000DBB23354013060E70829E6D19200084683
:1049E000D2B20B2159E7BDE8F08100BF2F5A04086D
:1049F00038B500210446FFF7A9FD054618BB20681D
:104A00002169FFF7A3FB0546E8B963691878E52833
:104A100005D020B120460121FFF79FFEEDE7206879
:104A20002169FFF793FB054668B9606929460022B2
:104A3000425401312029FAD1A1690B22FFF72AFB48
:104A4000236801201871284638BD10B50423044698
:104A50002169B9B12068FFF779FBD0B96269137891
:104A6000B3B1E52B06D02E2B04D0D17A01F0080289
:104A7000D3B283B120460021FFF76FFE0346002822
:104A8000E6D006E0184633B100202061184610BD7C
:104A900004200346F8E710BD012970B504460D4611
:104AA00022D9836999421FD2A069854205D2204646
:104AB0002946FFF7FBFC064608B9002070BD012817
:104AC00012D0411C0ED0204629460022FFF792FD4D
:104AD00058B921694A1C03D04A1C0125226165711D
:104AE0003546E1E7012070BD022070BD48B9064A95
:104AF000136803B1187009B100200870116000201C
:104B000070470B20704700BF001800202DE9F043CC
:104B10008DB0019117460546002800F082800023E1
:104B2000036005A901A802F01E02FFF7A7FB80465B
:104B300000287FD102A80B90019905A8FFF78AFEF3
:104B40000A9C18B9002C0CBF0620002017F01C0F7F
:104B500007F01F063CD048B1042802D105A8FFF792
:104B600047FF46F008060A9C48B162E0E07A10F080
:104B7000110F5DD107F00401CFB2002F54D106F020
:104B80000802D3B2002B30D000F03CFE0021C4F864
:104B90000E000598E172E1610278678B032A08BF75
:104BA000A28A618308BF47EA02470123A1820371F9
:104BB000DFB13946D0F82C90FFF76EFF002838D1CE
:104BC0000598013FC7604946FFF7C0FA68B130E079
:104BD00000282ED1E17A01F01002D3B233BB07F0E6
:104BE0000207FFB20FB1C80722D406F00800C1B215
:104BF00009B146F02006059BDA6A2C62EA61AE71C3
:104C00001978608B032904BFA18A40EA014028611A
:104C1000E2690020EA60A860A8612B60DB88AB80B5
:104C200008E04FF0090805E0082002E0042000E059
:104C30000720804640460DB0BDE8F0832DE9F74FD0
:104C400099460023C9F80030044688461746FFF706
:104C500069FA054600287FD1A079010679D4C207F8
:104C600079D5E168A2688E1AB74238BF3E46002E59
:104C700072D0A168CB0544D1206883785A1E02EA1D
:104C8000512313F0FF0B0AD109B9206902E06169D1
:104C9000FFF70CFC01280AD9431C3FD06061226851
:104CA000616910460192FFF7F5FB019B20B9A379DA
:104CB00063F07F02A2714CE0770A00EB0B0A1ED072
:104CC000987807EB0B01814288BFCBEB0007414688
:104CD00058785246FBB200F021FDF8B921680B79F3
:104CE0005BB1CA6ACAEB0200B84206D208EB4020A8
:104CF00030314FF40072FFF7CDF97F021EE0C4F8A7
:104D000018A0A768F805C10DC1F500772068A16952
:104D1000BE4238BF3746FFF719FA28B1A57965F0CA
:104D20007F01A171012517E0A2684046D305D90D86
:104D30002268303151183A46FFF7ACF9A168B844FF
:104D4000CB19A360D9F80020F61BD019C9F80000D0
:104D50008DE7022500E007252846BDE8FE8F2DE9F6
:104D6000F74F99460023C9F8003004468846174695
:104D7000FFF7D8F90546002840F0B180A079020677
:104D800000F1AA8000F00201CAB2002A00F0A68059
:104D9000E368DF4228BF0027CFB1A168CA056BD105
:104DA000206890F802A00AF1FF3202EA512313F0C2
:104DB000FF0A17D131B9216979B9FFF781FC0146A2
:104DC000206103E06169FFF77BFC014629B9A06817
:104DD000E16888427BD9E06079E0012914D0481C61
:104DE00057D061612068A269C16A914204D1002153
:104DF000FFF7ACF900284CD123686169184601938C
:104E0000FFF748FB019B20B9A37963F07F02A271F1
:104E100062E07E0A00EB0A0B20D0987806EB0A01CC
:104E2000814288BFCAEB0006414658785A46F3B221
:104E300000F0B4FC824660BB2068C36ACBEB03027F
:104E4000B24209D2303008EB42214FF40072FFF732
:104E500021F9206880F804A076022DE0A068E168BE
:104E6000884207D318463146FFF770F988B926689B
:104E7000C6F82CB0C4F818B0A268A169D305D80D43
:104E8000C0F500762068B74238BF3E46FFF75EF9AE
:104E900028B1A57965F07F01A17101251FE0A16806
:104EA0002368CA05D00D3030414632461818FFF746
:104EB000F1F8216801220A71A168B0448B19A3603E
:104EC000D9F80020BF1B9019C9F8000064E7A37946
:104ED00043F02002A27102E0022500E007252846E7
:104EE000BDE8FE8F70B50446FFF71CF9002827D1F6
:104EF000A37903F02001CAB2002A21D02068E16919
:104F0000FFF724F90646DEB9256AE87A40F0200367
:104F1000EB72E168E9612269100C6A83A88200F0F3
:104F200071FC6E82C5F81600A379206823F0200179
:104F30000122A17102712068BDE87040FFF741B9FC
:104F400070BD10B50446FFF7CDFF00B9206010BD5D
:104F5000F8B504460D46FFF7E5F80646002876D179
:104F6000A279110672D4E3689D4205D902F00200CD
:104F7000C1B2002908BF1D460022A368A2600DB976
:104F8000002553E0206887787F026BB1013B691EE2
:104F9000B1FBF7F1B3FBF7F2914205D3784203403E
:104FA000A360ED1A61690AE0216939B9FFF788FB4E
:104FB0000128014633D0431C1DD0206161610029C6
:104FC000DED00AE001292AD920688269914226D2DE
:104FD000A3686161D819A060ED1BBD4216D9A37901
:104FE000206803F00202D3B25BB1FFF769FB014610
:104FF00058B1481CE6D1A67966F07F01A17101265F
:1050000025E0FFF753FA0146F3E73D46A26853193E
:10501000EA05A360B4D02068FFF73CFA20B9A6796E
:1050200066F07F01A17111E000EB5525A068C20573
:1050300003D0A1698D4218BFA561E268904206D9EC
:10504000A379E06043F02000A07100E00226304622
:10505000F8BD30B587B00191044650B301A8214690
:105060000022FFF70BF9256800BB03ABA3612046C4
:105070000199FFF7EFFBA0B9606960B1C27A02F055
:105080001001CBB28BB12978428B032904BF808AEF
:1050900042EA0042A260E8880021A0802046FFF793
:1050A00055FA042801D028B100E005200023236030
:1050B00000E0092007B030BD7FB504460E46FFF77B
:1050C00031F80546E8B926B920462946FFF73EFAE9
:1050D00016E001ABA3612046FFF7B7FC042801D11D
:1050E000256100E060B920463146FEF7EAFF002165
:1050F0002046FFF732FB042802D10020206100E0A7
:105100000546284604B070BD30B58DB00CAB43F8F1
:105110002C0D0D46184605A90022FFF7AFF80446EE
:1051200078B902A80B90019905A8FFF793FB0446F4
:1051300038B90A9921B105A82946FEF7C2FF00E057
:10514000062420460DB030BD2DE9F34702AB43F8ED
:10515000040D14468846184611460022FFF78EF8C3
:105160002468054600284DD1A7692069BA1E9042DF
:1051700002D8C8F8000045E094F80090B9F1010F9A
:1051800010D102272E4620463946FFF78FF9431CDF
:105190002BD001282BD000B90136A16901378F42ED
:1051A000F1D327E0216A2B462A462E4652B92046E3
:1051B00001F1010AFEF7CAFFD8B904F130035146E4
:1051C0004FF40072B9F1020F05D1188800B9013609
:1051D0000233023A06E0186820F0704000B9013648
:1051E0000433043A013FE1D104E0012502E0022545
:1051F00000E00546B9F1030F266101D10123637177
:10520000C8F800602846BDE8FC8770B5044668B160
:10521000FEF788FF0546002840D1A379190637D448
:1052200003F00202D0B2002834D001E0092535E0B5
:10523000A668E168B14231D943F02003E660A3716A
:1052400020682EB92169FFF727FC2661054619E081
:105250006169FFF72BF9421C06461DD0012801D1D8
:10526000022510E020688269964217D261696FF0CA
:105270007042FFF7BFF9054628B920683146FFF7AD
:105280000BFC054655B1A07960F07F01A17105E0E6
:10529000022503E0072501E00125F4E7284670BD5B
:1052A00010B594B014AB43F84C0D184606A9012272
:1052B000FEF7E4FF002844D103A80C90019906A84A
:1052C000FFF7C8FA00283CD10B9931B1CA7A12F025
:1052D000010F0CBF0020072000E00620069B4C8B2E
:1052E0001A78032A04BF8A8A44EA024448BBC87A6F
:1052F00000F01001CBB293B1012C1FD90DA806A963
:105300001C22FEF7C7FE0DA802210F94FFF71EF91D
:10531000B8B90DA8FFF799FB90B1042811D106A8E0
:10532000FFF756F968B91CB90698FEF74AFF08E07E
:1053300006982146FFF7B0FB18B9F5E7022000E018
:10534000072014B010BD2DE9F04F8DB00CAC44F81F
:105350002C0D00F057FA05A9804601222046FEF7E1
:105360008DFF04460546002840F08E8002AB05A85C
:1053700001990B93FFF76EFA0446002860D00428C9
:1053800040F0828005982946FFF79AF906460028E2
:1053900058D0012858D0012401304CD00598294616
:1053A000FEF7D4FE0446002845D1059D3146284627
:1053B000FFF770F805F130078346002038550134B7
:1053C000B4F5007FF9D120223A5401300B28FAD1EC
:1053D000102126FA01F92E241FFA86FA85F83B10CF
:1053E00005F1500085F83040C5F84680A5F84AA080
:1053F000A5F844903946FEF74DFE059A85F85140D0
:105400001078079B032803D1546AA34208BF0023E6
:10541000190CA5F86A30A5F864109578FDB10598C7
:105420000121C0F82CB001710021FEF78FFE0BF1B5
:10543000010B044650B105983146FFF72DFB23E0E0
:10544000082421E00724F6E70224F4E70020385579
:105450000134B4F5007FF9D1013DEDB2DEE705A8D6
:10546000FFF7C6FA04460028E5D10A9B05981022EA
:105470000124DA72C3F81680A3F81AA0A3F81490D6
:105480000471FEF79EFE044620460DB0BDE8F08F85
:1054900030B58DB00CAB43F82C0D0C4615461846B4
:1054A00005A90122FEF7EAFEC0B902A80B900199F6
:1054B00005A8FFF7CFF988B90A9B73B1D97A05F02F
:1054C000270221EA0201144041EA0400D87205983B
:1054D00001230371FEF775FE00E006200DB030BD1C
:1054E00010B58CB00CAB43F82C0D0C46184605A932
:1054F0000122FEF7C3FE98B902A80B90019905A8F6
:10550000FFF7A8F960B90A9949B1E2880598CA82FB
:10551000A3880B8301210171FEF753FE00E00620F2
:105520000CB010BD30B59BB01AAB43F8640D0C46FF
:1055300018460CA90122FEF7A1FE00286FD10C9895
:1055400003A9139012910CA80199FFF783F9002881
:1055500065D11199002955D006A80B311522FEF707
:1055600099FD13A80CA91C22FEF794FD13A821464F
:10557000FFF770F9002847D0042850D113A8FFF78F
:1055800037FA00284BD1189C132204F10D000DF1BD
:105590001A01FEF77FFD9DF81820012342F0200537
:1055A000E5720C9D2B7115980E9981422ED0E27AEE
:1055B00002F01003D8B248B32A78618B032A08BFDF
:1055C000A28A284608BF41EA0241FEF763FF01466E
:1055D00020B32846FEF7BAFD0C9B00BB93F8511090
:1055E0002E2913D11A78032A03D15A6A15999142A8
:1055F00000D01598A3F86A000122000CA3F86400FB
:105600001A7103E004200AE0082008E00CA8FEF765
:10561000DFFF20B90C98FEF7D4FD00E002201BB09C
:1056200030BD00BF62B6704772B67047044B1A892E
:1056300002F002018AB2002AF8D09881704700BFB8
:10564000003C00400E4B188900F002018AB2002A8B
:10565000F8D00B4B18891A4600F0800188B2002858
:10566000F7D19B8999B2108982B2054BFF219981AC
:1056700003480289D207FBD58189C8B2704700BFB1
:10568000003C004070B506460D464FF47053C4F21E
:105690000003188900F002018AB2002AF5D04FF405
:1056A0007053C4F20003188900F080018AB2002A06
:1056B000F5D19B8998B24FF47051C4F200010A8968
:1056C00093B24FF47050C4F20000FF218181E5B124
:1056D0004FF47054C4F20004228902F0020398B21D
:1056E0000028F5D0FFF7A0FFFF21A1814FF47053F0
:1056F000C4F200031A89D107F8D59889C14306F886
:10570000011BFFF78FFF013DE2D170BD003018BFD4
:1057100001207047003018BF012070472DE9F04785
:105720000F46002835D1002B33D05202100A5E02FA
:10573000C2F307495FFA80F8174C80234FF4000149
:10574000236105202161FFF771FFFFF77BFF10F058
:10575000010AFAD14FF4000280252561032022615D
:10576000FFF764FF4846FFF761FF4046FFF75EFF23
:105770005046FFF75BFF38463146FFF783FFFFF7E0
:1057800061FFA46814EA0500D6D1034B1D61BDE892
:10579000F0870420BDE8F087000C014070B50D468D
:1057A0001C46D0B9CBB1560228463146BEF75AFD49
:1057B00008B1012070BD06F5807105F58070BEF757
:1057C00051FD013CE4B206F500760028F1D105F563
:1057D0000075002CE8D1204670BD042070BD78B95A
:1057E00061B1012903D14FF4805111607047023932
:1057F000012905D84FF400731360704708467047BD
:105800000420704700487047A06C21280023C25C28
:10581000202A04D00133082B01F8012BF7D12E22C6
:105820000A70037A4B70427A00238A70807A0B7177
:10583000C87070470C4B0D4A9A4201D10C4B0AE0DC
:105840000023094A0B4998188842F7D2074958584B
:1058500098500433F5E7084A934203D2002043F8F6
:10586000040BF8E7704700BF00180020E95A04084D
:1058700000180020001800205C1A002007B51B4B00
:105880001A79A12A30D01A48416941F04002426198
:10589000A1201871174B58206E214FF4FC62009321
:1058A0000023BEF7D1FCFFF7C5FF13490023009189
:1058B00058206E214FF4FC62BEF7C6FC00200F4951
:1058C000FFF714F9034630B90D486E2100904FF4EC
:1058D000FC62582006E00B4A582000926E214FF4DB
:1058E000FC620023BEF7B0FC0EBD00BF00300240DA
:1058F000001002403F5A04086C5A0408081800209F
:105900009B5A0408BE5A040808B5054B05485A6856
:10591000824201D1FFF7B2FF03490B68984708BDE7
:1059200000080140BB3B83882000000840B10128EB
:1059300006D0022804D0043801288CBF022004209D
:10594000704730B50A4C85B0084669461546FFF7E2
:105950005DFF04F50C7069460A22FFF7D7F8D4F80A
:1059600040322B8005B0BDE83040FFF7DFBF00BFFD
:105970000818002030B50A4C85B00846694615461F
:10598000FFF744FF04F50C7069460122FFF7BEF8EB
:10599000D4F840322B8005B0BDE83040FFF7C6BFD9
:1059A0000818002013B504460E480988D0F8403284
:1059B00099420CD121464FF4007201AB00F50C70F6
:1059C000FFF73CF902B0BDE81040FFF7AFBFFEF7AC
:1059D00061FD2146024601230020FFF79FFE0020C3
:1059E00002B010BD0818002007B5014601AB0848F9
:1059F0004FF40072FFF7B3F9019BB3F5007F04D1B8
:105A000003B05DF804EBFFF791BF032003B000BDC6
:105A1000381A002008B50548FFF79AFA10B903486C
:105A2000FFF78FFABDE80840FFF780BF381A002063
:105A3000222A2B2C3A3B3C3D3E3F5B5D7C7F004164
:105A40006C74657242494F5320302E333A20496EB0
:105A5000697469616C697A696E6720202020202052
:105A6000202020202020202020202000416C746550
:105A70007242494F5320302E333A204D6F756E7469
:105A8000696E672046617446532020202020202024
:105A90002020202020202020202000416C746572CE
:105AA00042494F5320302E333A204F4B20202020A4
:105AB0002020202020202020202020202000416C99
:105AC00074657242494F5320302E333A2046617438
:105AD0004653204641494C202020202020202020D1
:095AE000202020202020202000BD
:0400000508044000AB
:00000001FF
